:400000000040002011000000C5040000C504000008B500F073FAC04638B51222224B1A6001F09CFC214801F04FFE012001F0B6FC302001F0FDFB1E4A1E4B1A601E4C80250E
:40004000ED0525601D4A116802230B4313601C4A1C4B1A6000221C4B1A601C4A136808218B431360FA20C00001F044FC184801F037FCD0225202174B1A60174A174B1A60C0
:4000800080221206164B1A608022D202154B1A604022154B1A600820144901F00FFC082001F000FC256038BD30001040001BB7000600008004010B400C020B4078002E40A8
:4000C0002D3E00007C002E4064F02E406CF02E40DC0500000003014040FF00800000014008010B4000010B4004010140B51A000010B572B60022264B1A60002410E02548CA
:4001000063001A195200821891881B195B001A5AC31858880004104300F04EFA0134E4B2012CECD91C4A1D4B1A6099231B041C4A13601C4A13601C4A13601C4B1978022250
:400140000A431A701A4802783C218A4328390A430270197816220A431A702023154A13601549164A1160164A1360A033154A1360B021C903144A1160144A1360D8221204D9
:40018000134B1A60FFF748FF00F006FA10BDC0466CF02E40A0600100000099EE0000024000500F4020500F4030500F4000700F4001700F40000004400010DB0008000440AC
:4001C000180004400002044008020440000304400803044010B5064C2378002B07D1054B002B02D0044800E000BF0123237010BD80040020000000007060010008B5084B83
:40020000002B03D00748084900E000BF07480368002B00D108BD064B002BFBD09847F9E7000000007060010084040020C800002000000000064B00225A71A0321A71503A7A
:40024000DA703A3A9A7008325A70043A1A707047CC13002038B5051C44680E48211C062201F0D6FF002814D122780B4B1A7062785A70A2789A70E278DA7022791A716A680E
:4002800052795A716A789A710122044B1A7000F04FFA38BDCC130020BC1300209C04002030B587B028283FD006D8202821D0272832D0012875D10CE0412828D002D82B2817
:4002C0000BD06EE0492849D01223FF33984241D067E00122344B5A7063E0344B1B78052B5FD1314B1B78002B5BD101222E4B5A7057E02E4B1B78022B53D001A8031C0A1C44
:4003000032CA32C312CA12C3FFF7A4FF49E02848022201F08CFF44E0254A137850780002184300F087FA3CE0224A002351680B7051684B7051688B705168CB7051680B7165
:4003400052685371184A93701370D37001215170137126E00122144BDA7022E04B681A785D789C78144B1A705D709C70002A03D1002001F087FC02E0012001F083FC002D77
:4003800003D1002001F072FC02E0012001F06EFC002C03D1002001F081FC02E0012001F07DFC07B030BDC0469C040020A41F0020B8130020A0140020B413002000B585B0B4
:4003C0006B46187005F05CFE01A80C2303816B460193012383800021024A002311F08CFA05B000BDB41F002008B562B601F0C8FB064800F029F9FFF71DFF054A0023137041
:4004000053709370034A137108BDC046A1020000B41300209C04002010B582B0FFF7E4FF05F02EFE214B1B78002B07D0204800F08BF905F025FE00221C4B1A701B4B5B78DE
:40044000002B05D00022194B5A70002000F044F9164BDB78002B07D0164A13785078000218430E2110F09EF901F024FC00280ED10E4B1B79002B03D101220C4B1A7102E068
:4004800000220A4B1A71094B1879FFF797FF0A490A784B788978094C0091201C084902F059FB201C01F0D6FBBAE7C0469C040020BC130020B8130020B4130020D41300204A
:4004C00080600100FEE7C04608B5031C094A1068C318094A9A1A802189008A4202DC054A136005E001F068FE0C2303600120404208BDC046CC000020D01F002070B50F4E58
:400500000F4D13E029686B68AC68002202E001C901C30432A242FAD1E868002202E0002102C304328242FAD11035013E002EE9D101F048FEFFF770FFFEE7C046010000008A
:400540002468010008B50F4A136801218B43136000230AE0032B03D89A000B49505800E00A4899000A4A885001332F2BF2D9FFF7BFFD0022074B1A60024A116801230B4327
:40058000136008BD0000104000000000C504000000000020C00000200323044A1360044A13600022034B1A607047C0463000304030003140000E3F4008B50A1C002101F0D8
:4005C0003FFE08BD08B5074A0023138053809380D3801381044A13805380938000F076FF08BDC046B81F0020A81F002008B500220F4B1A700F4B1A700F4B1A700F494888E0
:400600000F4B18808888588088791873C97919710621D981223119825A820A399982DA82013A1A83074B1980FFF7CCFF08BDC046C41F0020B01F0020C21F0020D000002051
:40064000841F00209E1F002010B58AB0041C04A81749182201F0EBFD164B1B78002B04D1FFF7C4FF0122134B1A70002C1CD006230093114B01936E23FF3302930F48104918
:40068000104A04AB05F012FD0F4B1C6000280CD101220E4B1A7007320D4B1A700D480F21023211F011F900E001200AB010BDC04600610100A1040020006F0100CD12000069
:4006C000C0140020C40A0000B8140020A41F0020A51F00200063010008B502281FD8002806D1104B3C221A81343A5A809A8009E0012807D10B4B96221A81802212015A806C
:40070000F83A9A80084B187006480FF04BFA002806D1064A117804230B43137000E0012008BDC046D0000020C21F0020C41F002008B50FF065FA034A117808230B43137083
:4007400008BDC046C41F002010B5134B1B78052B1CD100281DD0002305E0C15C0F4AD21851710133DBB2052BF7D983790B48C3720FF0C4F9041E0DD10422074B1A70084B43
:400780001888002806D00CF0D7FA03E00424FF3400E00124201C10BDA41F0020841F00209E1F002038B50FF09BF9041C051C064B1B88002B01D00CF0D9FA002D02D1052258
:4007C000024B1A70201C38BD9E1F0020A41F002003784078000218437047C04638B58389092B20D1041C04300021221C373311F083F8051E11D16068FFF7EAFF830706D51C
:400800000A4B1B6882204000211C984705E0074B1B680620FF30211C9847054A137801218B43137000E00025281C38BDB8140020C41F002000B583B001AB1880154B1B781E
:40084000022B22D1FFF7BEFE134801A9022201F0EEFC002309E05A00D21852000F4952180021118051800133DBB2022BF3D901980FF062FF00280AD10122094B1A70094AB1
:40088000117802230B43137001E00420FF3003B000BDC046A41F0020B41F002054010020A51F0020C41F002008B5C288094B9A420FD1094B5B88002B05D18288064B5A8059
:4008C00082781A7005E0811D044B1B6886204000984708BD052A0000A81F0020B814002008B58288084B9A420DD1084B9B88002B03D14288054B9A8005E0011D044B1B6841
:4009000086204000984708BD02290000A81F0020B814002008B5084B5A8883899A420AD1011C064B1B68832040009847044A137801218B43137008BDA81F0020B8140020E3
:40094000C41F0020074B00225A701A70064B1B78052B03D10732044B1A7002E00822024B1A707047B41F0020A51F00208379002B07D000200BE0C25C002A07D10133DBB257
:4009800000E00023052BF6D9002000E00120704708B5C3882A4A944663449AB2042A4DD89300284AD3589F46274B1B88002B03D18288254B1A8041E0811D244B1B6886202D
:4009C000400098473AE0204B5B88002B03D182881D4B5A8032E0811D1C4B1B688620400098472BE0184B9B88002B03D18288164B9A8023E0811D154B1B6886204000984768
:400A00001CE0114BDB88002B03D182880E4BDA8014E0811D0D4B1B688620400098470DE0094B1B89002B03D18288074B1A8105E0811D064B1B6886204000984708BDC0464B
:400A400000D6FFFF54640100B81F0020B814002082B000236A4613805380094B1B78002B06D1084B5B8801331380074B1B895380009B180C00041B041B0C184302B070471F
:400A8000C31F0020A81F00205401002010B5041C0378032B35D1204B1B789B0731D51F4B1B78022B11D0DAB2022A02D8012B05D01FE0032B10D0042B15D01AE0184B1B68FF
:400AC0000820FF300021984713E0154B1B6884204000002198470CE0114B1B680A20FF300021984705E00E4B1B688520400000219847094A137802218B4313700022074B55
:400B00001A702378042B05D1064B1B78042B01D1FFF748FE10BDC046C41F0020A51F0020B8140020A41F002010B582B0041CFFF755FE0A4B1B78DB070ED4002809D001A92A
:400B400012238B70A3890B80C870206810F03CF902E0206810F09EF902B010BDC41F002030B583B0051C2D4B1B78012B0ED0002D06D00133DBB2294A1370012B06D104E027
:400B80000022264B1A70012500E00025234B1B78012B04D1281C00F08DFD019001251F4B1C78012C02D0FFF753FF019001AB1B88012B05D001AA5288002A01D0934201D921
:400BC000012CD0D9012C19D8154A137850780002184301A90FF07EFD00280AD0114B1B6885204000002198470F4A137802218B43137001AB5A880D4B1A800DE005220C4BC5
:400C00001A70084B1B681220FF3000219847064A137802218B43137003B030BDC31F0020B41F0020B8140020C41F0020A4040020A51F002008B5002804D01F4A1378013393
:400C4000137006E000221C4B1A7002E001331A4A1370194B1B78022B06D85A00D21852001649525A002AF1D0022B1DD8144813495A00D3185B0002784078000210435A5AB8
:400C8000CB185988090411430FF03AFD002811D00C4B1B680A20FF30002198470A4A137802218B43137005E00422084B1A700020FFF756FF08BDC046C31F002054010020B5
:400CC000B41F0020B8140020C41F0020A51F002008B5002804D01E4A13780133137008E000231B4A13701B4A938002E00131184B1970174B1978022906D84B005B185B004B
:400D0000154A9B5A002BF1D0022919D8134A4B0059184900104B591813785078000218430FF022FD002811D00D4B1B6884204000002198470B4A137802218B43137005E05A
:400D40000322094B1A700020FFF774FF08BDC046C31F0020A404002054010020B41F0020B8140020C41F0020A51F002070B586B0244B1B78022B43D1234B9B88002B3FD0AE
:400D8000041C01AD204EB11D281C042201F04FFA6168228902A801F04AFA281C00F0C6FBB288013292B22A80184B1B785900CB185B001749CB185B886B809A4215D8154A1C
:400DC000137850780002184301A90FF0CDFC00280ED0114B1B6884204000002198470F4A137802218B43137002E00120FFF770FF0A4A137801218B4313700022024B9A806D
:400E000006B070BDA51F0020A4040020C31F002054010020B41F0020B8140020C41F0020F0B557464E464546E0B482B03C4B1B78012B6ED13B4B1B789B076AD580460789CE
:400E4000062F01D0142F5ED143465B8999460026002544E043465B685E19062F3AD132E0019463001B195B002F48C3189888B388984225D160008246A24452465200924656
:400E800029488446105A002808D1524660468018311C042201F0CBF9012111E0012C08D8621C5000821852001F4882189288934206D0311D1D4B1B680C20FF309847012159
:400EC0000134A4B201E000210024022C05D80029C6D002E0301C00F029FBED19ADB24D45B8D3002E09D07288114B9A4205D102220B4B1A700020FFF7EBFE0A4A13780121A0
:400F00008B43137005E0094B1B680820FF300021984702B01CBC90469946A246F0BDC046A51F0020C41F002054010020B8140020FFFF0000F0B557464E464546E0B486B002
:400F4000874B1B789B0700D403E1058946894468844B1B78032B76D171E0201CFFF738FC6B461880A3786A469370E01CFFF730FC6B469880631D9846152D1DD102236A46BA
:400F800093754146901D102201F051F915239846A044754B1A7853009B185B007349CB189988734B994232D0022A30D1023A90B2694600F0F3FA2AE0072D28D101236A463E
:400FC00093754046FFF704FC6B46D880E31D9846654B1A7853009B185B006449CB189B88C02149018B4203D062498B4204D007E06846FFF7CDFC0AE06846FFF755FC06E000
:40100000022A04D1023A90B2694600F0C7FA6B469A88554B1B785900CB185B005349CB185B889A4202D10120FFF704FE4C4A137801218B4313707F19BFB2444600E00027DC
:40104000B7428AD385E0022B00D082E07DE0201CFFF7BEFB81466B461880A01CFFF7B8FB82466B465880201DFFF7B2FB6B469880A31D9846062D22D102236A4693750FF0FF
:40108000EFFB3D4A137850780002184351460FF089FB002807D1394B04336A4613CA13C313CA13C337E0364B1B6884204000002198472B4A137802218B4313702BE0082D71
:4010C00029D101236A4693754046FFF781FB031C6A46D38008239846A044002319E05A00D2185200214CA218928890420FD15A00D2185200125B002A09D15800C1184900ED
:4011000060186B46991C043201F091F803E001339BB2022BE3D9144B1B785A00D3185B00124AD3185B88994506D1144B9B88002B02D00120FFF7CCFD094A137801218B4336
:4011400013707F19BFB2444600E00027B74200D27DE706B01CBC90469946A246F0BDC046C41F0020A51F0020C31F002054010020FEFF000001180000B41F0020A404002016
:40118000B8140020F0B587B000236A4653802A4B1B78042B4DD1294B1B789B0749D50689037B1375028869460A80012B01D1042700E01227456800242BE0281CFFF708FBF2
:4011C0006B465880A81C1B7D022B0DD1011C01A8102201F02CF81235194B1B78012B16D1684600F0C1FA12E0FFF7F2FA6B4698800435134B1B78002B02D16846FFF770FB74
:401200000F4B1B78012B02D1684600F0ADFAE419A4B2B442D1D36B465A880A4B1B889A4202D10120FFF79CFC044A137801218B43137007B0F0BDC046A51F0020C41F00200A
:40124000C31F0020A404002008B51E4B1B789B0737D583790A2B34D11B4B1B78022B16D0DAB2022A02D8012B05D02AE0032B17D0042B1ED025E00222134B1A700020FFF705
:4012800027FD104A137801218B43137019E00120FFF71EFD0B4A137801218B43137010E00120FFF7C7FC074A137801218B43137007E00120FFF754FC024A137801218B4306
:4012C000137008BDC41F0020A51F0020F0B583B0051C0C1C6D4A117801230B431370532800D9C1E083006A4AD3589F4601AE0727377000237370301C06F005FB3770012396
:401300007370301C06F0FFFA624B1E68301CFFF72DFB002803D0301C04F0B6FE0BE05E4B1B785E4803705E4B1B7843705D4B1B78837004F0A9FE03200EF0EEFA05225A4B36
:401340001A7091E0201CFFF7A1FB8DE02278574B1A7089E04D4B1B789B0600D584E0544B1B7D102B02D10522514BDA75514B18784F4914310EF0F6F976E04F4B1B88002BF8
:4013800001D00BF0F3FC0222474B1A706CE00522454B1A7068E0444B1B78022B64D03B4A1278D20760D5394A1278520708D503223D4B1A70354A137804218B43137053E090
:4013C000324A1278120708D50522374B1A702F4A137808218B43137046E0032B44D10522314B1A7040E0334E301C211C022200F01EFF31785A318900304B591805313048F8
:40140000042200F014FF00222E4B1A702CE0FFF799FA29E06188162900D9172120880FF0DFFC21E0201CFFF77FFB1DE0201CFFF7F7FC19E0201CFFF77DFD15E0201CFFF76A
:40144000A1FE11E0201CFFF7FFFE0DE0201CFFF761FA0E4B1B78DB0706D420680FF032F902E0201CFFF782FC084B1A7811231A4209D0064A137801218B431370124B1B68CB
:40148000281C211C984703B0F0BDC046C41F002068640100DC0000207CF1FF0FE00000207DF1FF0F7BF1FF0FA41F0020B01F002054010020B41F00209E1F0020006F0100A2
:4014C000A01F0020A51F0020B8140020F0B5002627E03301144AD318DB6828011B1800221A80002108E0DF684A0053189B00FB1800221A80013189B223010B4AD318DB6810
:401500001B189A7A8A42EED80135ADB200E00025341C3301044AD3185B7AAB42D9D80136B6B2002EF3D0F0BD6C010020F8B5061C0027002426E0251C2301154AD3181B7ADA
:40154000022B1DD1311D2301D3185868102200F05FFE002814D102356B005B195B000D4A9B5A002B0CD1680045196D005019311C042200F05CFE084A1378013313700127CD
:401580000134A4B2002C01D1002FD4D0F8BDC0466C01002054010020C31F0020F8B54F464646C0B4061C0F1C3E4B1B68002B09D03C4A9288824202D10A88013A1A800022B1
:4015C000384B1A6000239846002451E0BD7D022D12D13301344AD318DA682301D3181A7A022A0CD1B91D58680E3200F011FE002808D00023994607E00023994604E00023FA
:40160000994601E001239946012D11D13301264AD318DA682301D3181A7A012A08D1B91D5868013200F0F4FD002801D1012399464B46012B1AD133011B4AD318DA68230126
:40164000D2181188002911D1B98811803101164A5218D1680832C918B87848725268D3180233104A13609680012398460134A4B233010D4AD3185B7AA34202D94346002BC7
:40168000A4D0084B1A68002A08D0084B1B785900CB185B000649CB185B8813800CBC90469946F8BDC00400206C010020C31F00205401002030B583B000236A46138053804F
:4016C00000281CD0254AD3885C1C11890A01244DAA18527A944202D2204AD48014E04A1C05D11E4B013119810022DA800CE01D490A7801320A700133184AD38004E0174BF7
:4017000000221A81DA80012014490B891A01144CA218547ACA8894420BD91B011049CB18D9681301CB18198801316D4629805B886B806B461B88012B05D0694649880029E6
:4017400001D08B4201D99442BAD8009B180C00041B041B0C184303B030BDC046C00400206C010020C31F0020F8B54F464646C0B4061C00239846002542E0377D022F12D198
:401780006B005B199B00E268944663441A7A022A0CD1311D58680E3200F03AFD002808D00023994607E00023994604E00023994601E001239946012F11D16B005B199B0091
:4017C000E268944663441A7A012A08D1311D5868013200F01DFD002801D1012399464B46012B0BD1E1686A0053199B00CB181A88002A03D172881A80012398460135EDB2FD
:40180000094A13891B010949CB18DB68D48824011C19A37AAB4202D94346002BADD00CBC90469946F8BDC046C00400206C01002010B586B0041C00F050FA0E4B1B680093EC
:401840000D4B1B680193033C0C4B1B5D02930C4B1B68039304AA0B4B04936B4605930A4B1A600A490A4A11601B6800F03AFA06B010BDC04608010B4000010B40F4650100F1
:4018800030001040B6EA0000080010401700008004001040024B1B68012018407047C0460C002E401F2318401E3B8340181C014B1860704700E100E001BE704738B5041C9C
:4018C0000D1C1F2802D90020FFF7F6FFA400034B9C4664442068256038BDC0464000002008B5034B1B7A584300F0EEF908BDC0469801002010B5041C0F4A116801230B43EF
:4019000013600E4A0E4B1A600E4A1368802109020B431360002809D100200CE00120FFF7DFFFFFF7B7FF002804D1013C002CF5D1102000E0002010BD60F02E400220000011
:4019400078002E4010002E40034B1868C0231B02184000D00120704700010B4010B50D4B1A6801218A431A601A68022082431A60094A10683024A043203C20431060106855
:40198000093CA043014311601A68802109060A431A6010BD00F02E4000FF2E4038B51D4B1B6801241C40002802D0012816D02BE0184B196801229143196019680220814391
:4019C0001960154B19682E3081432038014319601968093881430A431A6018E00D4B1A6802218A431A600C4A10680725A84301431160116830208143103801431160196828
:401A000001220A431A6002E00020FFF755FF201C38BDC04600F02E4000FF2E4008B500F05CF9044A1368C02109020B43136000F058F908BD00010B4010B500F04EF9084957
:401A40000A68084B1A408024E40122430A600A6813408022120213430B6000F042F910BD00010B40FF3FFFFF70B5061C00F035F9041CFFF769FF002803D0FFF7DDFF01255D
:401A800000E000250848331C0340084A106808490840184310601368012D01D1FFF7BEFF201C00F01EF970BD0404040010020B40FBFBFBFF10B5244B1B685B0715D5234BA9
:401AC0001B685B070ED5224B9969042001401F4C22688A4322609A6982439A61DB68002B00D098470420FFF7BFFF174B1B685B0518D5164B1B685B0510D5154B99698022EF
:401B0000D2001140114802688A4302609969114A0A409A611B69002B00D098478020C000FFF7A2FF084B1B685B030CD5074B1B685B0304D5064B5B69002B00D098478020E9
:401B4000C002FFF791FF10BD10020B40A8010020CC040020FFFBFFFF08B500F06DF808BD08B500F01DF808BD08B5044A1368802109060B431360FFF7EFFF08BD00002440E0
:401B800008B5064B1B78002B04D1FFF7E9FF0122024B1A70FFF7E8FF08BDC046E804002010B5134A134B1A600023134A13600121124A1160124A134802600724124804601A
:401BC000124803601248016012490A60124A13600421124A1160124A1360124A1360124A1360124A1360124A1360124A136010BD0B0000020000244040002440480024407F
:401C00000700008000032440040324401003244044002440000224400402244050002440880E2440C80E2440480F2440080F2440C80F2440880F2440044A1168044B0B40A7
:401C4000902109040B4313607047C04600000240FFFF0FFF38B5051C002402E000F044F80134285D0028F9D138BDC04604490A68BF231A4080017F3B1840104308607047F3
:401C80000003044004490A68BF231A4080017F3B184010430860704700020440044A11687F230B40C001C0B2184310607047C04600030440024B18680006C00F7047C04682
:401CC00004020440000000000230800803D00138FDD1C046C046C0467047EFF3108072B6704780F310887047044B1B681F221340082BF9D0024B18607047C04608022440D8
:401D0000400224400160704701607047244B1A781202244B1B781A43234B1B781B02234909780B4322498B4201D1072A06D0D42109018B4206D1042A04D102E01D4B0422D9
:401D400000E01C4B1C490B601C4B1A601C4B1B781B021C4A1278134380229201934202D0002B02D002E0184B00E0174B174A1360174B1B781B02174A12781343164A934252
:401D800005D0164A934204D0052B05D103E0144B02E0134B00E0124B124A13607047C046D9F0FF0FD8F0FF0FDFF0FF0FDEF0FF0F580B0000580D00006C002E4074002E400A
:401DC000DBF0FF0FDAF0FF0F0220000078002E40DDF0FF0FDCF0FF0F0F0F000005050000050F000080002E4008B5FFF779FD08BD08B500F02FF808BD08B500F033F808BD27
:401E000008B500F02FF8034800F00EF8032000F011F808BDAD1E000008B5024800F02AF808BDC046AD1E0000014B18677047C0460000002010B5041CFFF74FFF044A136898
:401E4000C0218B43A4011C431460FFF74AFF10BD0CE400E080225201014B1A607047C04600E100E080225201014B1A607047C04680E100E010B5041CFFF7F4FF201CFFF76D
:401E8000D3FF0320FFF7D6FFFFF7E4FF10BDC04608B5FFF722FF044A136804218B43136030BFFFF71EFF08BD10ED00E008B514F0CBF808BD002243088B4274D303098B426C
:401EC0005FD3030A8B4244D3030B8B4228D3030C8B420DD3FF22090212BA030C8B4202D31212090265D0030B8B4219D300E0090AC30B8B4201D3CB03C01A5241830B8B4261
:401F000001D38B03C01A5241430B8B4201D34B03C01A5241030B8B4201D30B03C01A5241C30A8B4201D3CB02C01A5241830A8B4201D38B02C01A5241430A8B4201D34B02F3
:401F4000C01A5241030A8B4201D30B02C01A5241CDD2C3098B4201D3CB01C01A524183098B4201D38B01C01A524143098B4201D34B01C01A524103098B4201D30B01C01A28
:401F80005241C3088B4201D3CB00C01A524183088B4201D38B00C01A524143088B4201D34B00C01A5241411A00D20146524110467047FFE701B5002000F0FCF802BDC046A9
:401FC0000029F7D003B5FFF775FF0EBC4243891A1847C04603460B437FD4002243088B4274D303098B425FD3030A8B4244D3030B8B4228D3030C8B420DD3FF22090212BA87
:40200000030C8B4202D31212090265D0030B8B4219D300E0090AC30B8B4201D3CB03C01A5241830B8B4201D38B03C01A5241430B8B4201D34B03C01A5241030B8B4201D3A4
:402040000B03C01A5241C30A8B4201D3CB02C01A5241830A8B4201D38B02C01A5241430A8B4201D34B02C01A5241030A8B4201D30B02C01A5241CDD2C3098B4201D3CB016D
:40208000C01A524183098B4201D38B01C01A524143098B4201D34B01C01A524103098B4201D30B01C01A5241C3088B4201D3CB00C01A524183088B4201D38B00C01A5241F9
:4020C00043088B4201D34B00C01A5241411A00D201465241104670475DE0CA0F00D04942031000D34042534000229C4603098B422DD3030A8B4212D3FC22890112BA030A9F
:402100008B420CD3890192118B4208D3890192118B4204D389013AD0921100E08909C3098B4201D3CB01C01A524183098B4201D38B01C01A524143098B4201D34B01C01AC5
:40214000524103098B4201D30B01C01A5241C3088B4201D3CB00C01A524183088B4201D38B00C01A5241D9D243088B4201D34B00C01A5241411A00D20146634652415B1074
:40218000104601D34042002B00D54942704763465B1000D3404201B5002000F00BF802BD0029F8D003B5FFF715FF0EBC4243891A1847C0467047C046014B18687047C046F0
:4021C000440400200E4B70B500251E1C0D4CE41AA410A54204D0AB00F35898470135F8E714F00EFB084B00251E1C084CE41AA410A54204D0AB00F35898470135F8E770BD53
:402200000C6801000C6801000C6801001468010030B50024944208D0035D651C0C5DA34201D0181B02E02C1CF4E7002030BD002310B5934203D0CC5CC4540133F9E710BD15
:40224000031C8218934202D019700133FAE77047F0B58BB0141C1D1E129906DA802424062B191D1C141C2D2300E000230B702023149E03229E43462E07D0331C453B5942DA
:402280004B411099013ACB181093109B00920193139B221C029308AB039309AB04932B1C00F008FD071C472E02D1119BDB072CD5109BFB180793462E14D13B78302B0CD170
:4022C000201C291C0022002302F06CF8002804D10123109A9B1A139A1360139B079A1B68D3180793201C291C0022002302F05AF8002801D0079B0993099B079A934204D29A
:402300005A1C099230221A70F6E7381C099B159ADB1B13600BB0F0BDF7B52B23071C0C1C0270861C002901DA2D234C427B70092C1CDD6B46DD1D201C0A21FFF731FF013D91
:4023400030312970201C0A21FFF744FE041E092CF1DC013D30342C706B460733301CAB4209D92B78013533700136F5E73023E4183370B01C7470C01BFEBD0000F0B593B0AD
:402380000C1C08920993189E051C01F093FA0368181C0B9300F000FC0023216810930C90277E33680722C90501D59B1800E0073393431A1C083232601A685B68A264E36412
:4023C000A06CE16C00F09EFB012818D1A06CE16C0022002301F0ECFF002803D0231C2D2243331A70B64B0A93472F01D9B54B0A9303232268236101339A43226012E0A06C96
:40240000E16C00F07FFB266800280DD1AE4B0A93472F01D9AD4B0A930323311C2361013399432160002680E080216068C900431C01D1062309E0A26CE36C672F01D0472F19
:4024400004D1002800D0C0E101236360636831430093232321600191002106AA9B1802930FAB039310AB05930497A26CE36C0691281CFFF7EDFE20233A1C0A909A43472AEB
:4024800007D10F9BDA1C02DB626893422DDD023FFFB20F99652F12D8201C01393A1C50300F91FFF739FF109A061C83182361012A02DC2268D2072ED5013323612BE0662F3A
:4024C00014D16368002908DD2161002B02D12268D2071DD50133CB1811E0002B03D101222168114213D09A1C11E067270F9B1098834206DB22682361D20709D501332361B6
:4025000006E00122002B01DC0221CA1A8218226100260F9BA365232306AA9B181B78002B03D0231C2D2243331A70099B281C0093211C089B11AA00F05FF9431C02D1012015
:40254000404256E12268530504D4281C08990A9A236916E1652F00D8D4E0A06CE16C0022002301F01FFF00282BD00123281C0899574A099EB047431CE1D00F9B109A93426B
:4025800007DB2368DB0704D423689B0700D51AE113E1099E281C08990B9A0C9BB0470026431CCCD0109B013B9E42EDDA221C0123281C08991A32099FB847431CBFD0013626
:4025C000F0E70F9B002B2BDC0123281C0899404A099EB047431CB2D00F9B002B05D1109B002B02D12368DB07CED5099E281C08990B9A0C9BB0470026431CA0D00F9B281C00
:402600005B4208999E4208DA221C01231A32099FB847431C93D00136F0E70A9A109BB0E0109BA66D9E4200DD1E1C002E01DC002314E0331C281C08990A9A099FB847431CE1
:40264000F5D17CE7221C0123281C08991A32099FB847431C00D172E70D9B01330D93F343A26DDB170D993340D31A9942EADB0A9B9E180F9B109A93420EDB2368DB070BD45C
:40268000109B0A9AD7180F9ABF1B9B1A9F4200DD1F1C002F09DC11E00C9B281C08990B9A099FB847431CEBD149E7321C3B1C281C0899099EB047431C00D140E7002315E0EC
:4026C000266601002A6601002E6601003266010036660100221C0123281C08991A32099EB047431C00D12AE70A9B01330A930F9A109B9A1AFB43DB173B40D31A0A9A9A42E9
:40270000E8DB41E7109B281C0899012B02DC01231A423CD001230A9A099FB847431C00D10DE70C9B281C08990B9A099FB847431C00D104E7A06CE16C0023002201F032FE43
:402740000023002812D10A9A109B0132013B281C08991DE0221C0123281C08991A32099FB847431C00D1EAE60A9B01330A93109B0A9A013B9A42EDDB221C281C331C08993A
:402780005032099EB047431C00D0FDE6D7E60A9A099FB847431CEFD1D1E6221C0123281C08991932099FB847431C00D1C7E60136E368119A9B1A9E42EFDB119BE068984299
:4027C00017DA181C15E00026F2E73143216001912321009006A8091802910FA9039110A90591002104970691281CFFF731FD0A9047E613B0F0BDC046F7B5171C01930A698A
:402800008B6800900C1C934200DA131C221C3B6043321278002A01D001333B6023689B0602D53B6802333B60062523681D401ED0231C43331B785A1E9341226892061CD54F
:402840003020E1184031C870211C5A1C45310978A21840320233D1700FE0221C0123009801991932089EB047431C0ED00135E3683A689B1A9D42F0DBDAE7221C00980199BF
:402880004332089DA847431C02D10120404220E006232068E1683A6803400025042B03D18D1AEB43DB171D40A3682269934201DD9B1AED180027AF420ADA221C0123009816
:4028C00001991A32089EB047431CDED00137F2E70020FEBDF0B58BB006920A1C43320793059004920A7E0C1C109B6E2A00D1A8E011D8632A22D009D8002A00D1B2E0582AE0
:4029000000D0C2E045310A707C4A4FE0642A1DD0692A1BD0B9E0732A00D1A7E009D86F2A29D0702A00D0B0E0202209680A43226037E0752A1FD0782A33D0A6E00E1C1A684E
:402940004236111D196013683370A1E021681A68080606D4490604D5111D19600023D55E02E0111D19601568002D3BDA2D23049A6D42137036E021681A68080606D44906C1
:4029800004D51568111D1960ADB202E0111D196015685A4B227E03930A276F2A1DD108271BE0221C782145321170554A19680392081D226818600D68100602D4500600D5C1
:4029C000ADB2D30702D520231A4322601027002D03D1202322689A432260231C002243331A7002E00A27454B03936368A360002B03DB0422216891432160002D02D1049E2A
:402A0000002B0ED0049E281C391CFFF7D9FA039B013E5B5C281C3370391CFFF74BFA051EF1D1082F09D12368DB0706D563682269934202DC3023013E3370049B9B1B236129
:402A40002BE009681A68080607D4490605D5111D19601368A28A1A8004E0111D1960136862691A600023049E236116E01A68111D196016680021301C626800F029FF0028B6
:402A800001D0801B6060636803E0261C42363270012323610023049A1370079B05980093211C069B09AAFFF7A7FE431C02D10120404221E0236905980699321C079DA84777
:402AC000431CF4D023689B0705D4099BE068984212DA181C10E00025E368099A9B1A9D42F3DA221C0123059806991932079EB047431CDCD00135EFE70BB0F0BD38660100C0
:402B00004966010030B50C1C0223044317D080242406A14201D1002811D00A4B49004908094ACC180423944209D9084A013B914205D9074A0023914201D143424341181C5F
:402B400030BDC0460000F0FFFFFFDF7FFFFF0F000000F07F0EB410B59DB002A9029008610B48822488604861012040421FABC881084804CBA400006801938C8101F0AAFA80
:402B80000023029A13701DB010BC08BC03B01847FFFFFF7F440400200023C25C0133002AFBD1581E7047F0B503690C6989B00026A3427CDB0B1C013C1433A50003935B196D
:402BC0000493031C143301935D19049B07911B680290591C28680593FFF76CF9071EB74235D0039B01989C460596634604CB91B27943120C7A4371180E0C9C46B318069378
:402C000002881E0C059B89B2D2180368521A190C6B461B8BCB1A11145B18191492B21B041A43049B059104C06345DED22B68002B0DD1231C019A043D954203D8029A1C1CD0
:402C4000136104E02A68002AF8D1013BF2E70298079901F059F8002828DB00200199039A013720CA0B881818ABB2C31A08682D0C000C451B1E14AD1928149BB22D042B4310
:402C800008C1049B9342ECD2019AA300D3181A68002A0BD1019A043B934202D8029B1C6104E01A68002AF9D1013CF3E73E1C301C09B0F0BDF0B5161C1F1C446A9BB00890A5
:402CC000239D06960797002C08D1102000F0F6FD089B5862446084600460C460089B5B6A196800290BD05A68012393404A608B60089800F030FE0022089B5B6A1A60079BB6
:402D0000002B05DA01232B607B005B08079301E000232B60079CC64B221C17931A409A4219D1C44B229A1360069AC34B002A02D1240300D1C14B249A181C002A01D100F04C
:402D4000B6FDD978DA1C002900D005322499181C0A6000F0ACFD069E079F0022301C391C002301F01FFB051E0ED00123229A1360B34B249A181C002A01D100F098FDB14A3A
:402D800024990A6000F093FD19AB009318AB01930898321C3B1C01F03DF861000A90490D09D03803A84C000B0443A848321C231C0E1816951CE0189B199A9E18A44B9E4273
:402DC00009DBA44BF018069BC340181CA24B9B1B9C40204304E0A148069B801B8340181C03F0FAF89E4C021C0B190121013E1691101C191C00229B4B02F002FD9A4A9B4B01
:402E000002F064FA9A4A9B4B01F0FAFA041C301C0D1C03F0A5F8984A984B02F057FA021C0B1C201C291C01F0EBFA041C0D1C03F061F8291C03900022201C002301F0B8FA39
:402E400000280DD0039803F08BF8021C0B1C201C291C01F0A7FA43424341039AD31A039301231393039B162B11D8854ADB00D31818685968069A079B01F0AEFA002805D07B
:402E8000039B013B03930023139300E01390189B9E1B00230D93013E0E9604D50E9B5B420D9300230E93039B002B08DB039A0E9B944663440E93002312920F9307E00D9BB5
:402EC000039A9B1A0D9353420F9300231293209B0125092B27D8052B02DD0025043B2093209B981E032823D801F042FA020E0410002300E001231093219B002B21DC0123ED
:402F00000B9309931A1C1AE0002300E00123039A10939446219B63440B9301330993002B12DC012310E0002310952093013B02E001231093023B00220B93099313332192F6
:402F400002E0219B0B930993089A546A002262600432111C1431994204D86168520001316160F6E70898616800F0BDFC089B20605B6A1B680C93099B0E2B00D988E1002D83
:402F800000D185E1069B079C14931594039B002B30DD0F223A491340DB00CB185C681B6804930594039B02271D11EB060AD514981599344B15401A6A5B6A01F049FD06902B
:402FC000079101372F4C002D0DD0EB0708D5049805992268636802F079F90490059101376D100834EFE706980799049A059B01F02FFD49E0039B02275D42002D46D01498B2
:4030000015990F231E4A2B40DB00D3181A685B6802F05CF91B4C2D11002D35D0EB0704D522686368013702F051F96D100834F3E70000F07F0F270000636601005A6601005D
:4030400036660100376601000000F03F01FCFFFFEFFBFFFF120400000EFCFFFFEEFBFFFF000010FE0000F83F61436F63A787D23FB3C8608B288AC63FFB799F501344D33F1B
:40308000706601003867010006900791139B002B1ED0069C079D0022201C291CCE4B01F087F9002814D0099B002B11D00B9B002B00DCE9E0039B291C013B1193201C0022DE
:4030C000C64B02F003F90137069007910B9D02E0039B099D1193381C069B079C0493059402F03EFF049A059B02F0F0F80022BC4B01F086F906900791069E079F079BB94A34
:403100009C18002D1CD1049805990022B64B02F077FB321C231C0490059101F05DF9002800D063E204980599321CB04E079CB4466444231C01F03CF9002800D04CE2A3E0EC
:40314000AB4A6B1E1099DB00D31800294ED01A685B680020A74901F07BFC321C231C02F04FFB049E059F0C9B069007910493391C301C02F0BFFE041C02F0F2FE021C0B1C4C
:40318000301C391C02F03CFB049B303401330493013B1C70069A079B061C0F1C01F008F9002800D061E3321C3B1C00208A4902F027FB069A079B01F0FBF8002800D0CDE07B
:4031C000049B0C9A9B1AAB425EDA069807990022824B02F07BF80022069007917F4B301C391C02F073F8061C0F1CC0E718685968321C231C02F06AF8049E059F0C9C06906C
:40320000079163190493391C301C02F073FE051C02F0A6FE0B1C021C391C301C02F0F0FA3035049B25700134061C0F1CA34224D10022069807996F4B01F0E2F8021C0B1C47
:40324000301C391C01F0C8F8002800D086E0069A079B0020674902F0D3FA021C0B1C301C391C01F0A5F800280ED0049B013B1A78302A00D0F9E20493F7E70022574B02F0B6
:4032800025F8061C0F1CBEE7149B159C06930794199B002B00DA86E0039A0E2A00DD82E0D300534AD3181E685F68219B002B14DA099B002B11DC00D090E1301C391C0022FB
:4032C000494B02F003F8069A079B01F08FF8099F3E1C002800D083E18CE10C9B069C079D0493321C3B1C201C291C01F0B1FB02F001FE069002F034FE321C3B1C01F0E6FF5B
:40330000021C0B1C201C291C02F07AFA0B1C0499021C0698013104913030013908700C980499091A099881422ED1101C191C01F067F8321C3B1C041C0D1C01F04DF8002844
:4033400010D1201C291C321C3B1C01F02BF8002800D18CE2069BDB0704D488E2119B039300E00493049B013B1A78392A08D10C9A9342F6D1039B0133039330231370131CF5
:403380001A7801321A7072E2101C191C0022134B01F09CFF00220023041C0D1C01F002F800289ED063E2109A002A44D0209A012A0BDC169A002A02D00F4A9B1802E0362302
:4033C000189A9B1A0F9D0D9C29E0099B5D1E0F9BAB4213DB5D1B18E00000F03F0000244000001C400000C0FC000014400000C07C706601000000E03F330400000F9B0F953E
:40340000EA1A0025129B9B181293099B002B04DA0D9B099A9C1A002301E00D9C099B0D9A0898D2180D920E9A0121D3180E9300F031FB061C02E00F9D0D9C109E002C0CD00E
:403440000E9B002B09DDA34200DD231C0D9AE41AD21A0D920E9AD31A0E930F9B002B21DD109B002B18D0002D10DD311C2A1C089800F0A6FB061C0A9A311C089800F013FB0B
:40348000071C0A99089800F066FA0A970F9B5A1B08D008980A9902E008980A990F9A00F08FFB0A900898012100F0F4FA129B071C002B0ADD391C1A1C089800F081FB209BC5
:4034C000071C0025012B1BDC03E0209B0025012B12DC0025069BAB420ED1079B1B03AB420AD1179B079A134206D00D9B013501330D930E9B01330E93129B0120002B08D0EB
:403500003B6903339B00FB18586800F079FA2023181A0E9BC0181F23184009D001331B1A042B02DD1C23181A03E0042B08D0181C1C300D9B24181B180D930E9B1B180E93F1
:403540000D9B002B05DD08980A991A1C00F08AFB0A900E9B002B05DD391C08981A1C00F081FB071C139B002B1ED00A98391C00F0CBFB002818DA039B0898013B03930A995D
:4035800000230A2200F000FA109B0A90002B00D17FE1311C002308980A2200F0F5F90B9B061C002B3CDC7DE1099B002B2EDC209B022B2BDD099B0B930B9B002B10D1391C9C
:4035C0000898052200F0E0F9071C0A98391C00F09BFB00280EDC03E02F1C00E000273E1C219BDB4303930C9B04930CE02F1C2E1C119B03930C9B0C9A01330493312313709A
:40360000039B01330393099600261AE1109B002B04D1099B0B930C9D0A9CD0E0099B0B93002C05DD311C0898221C00F01BFB061C0996002D12D07168089800F054F9311C22
:40364000041C33690C319A1C92000C30FEF7EFFD0898211C012200F005FB09900C9B0C9A0E930B9B0A9C013BD3181093391C201CFFF799FA031C0F903033311C201C0D93FB
:4036800000F042FB391C0B90099A089800F057FB01230493C368051C002B04D1201C291C00F032FB04900898291C00F054F9049B209A134310D1069A013313420CD10D98D2
:4036C0000A9439283DD00B9B002B01DD0F9831300E9B013304933EE00B9B002B05DA049B0D9D0A94002B09DC1CE00B9D209B1D431ED10123069A13421AD1F0E7211C089868
:40370000012200F0AFFA391C0A9000F0FDFA002803DC07D10D9BDB0704D50D9B392B10D01D1C01350E9B013304930E9B1D7088E00E9B5D1C049B002B10DD0D9B0A94392BC5
:4037400006D10E9B0E9A013304933923137060E00D98049501300E9B187072E06A463421521812780E9B04951A70109A93423FD0211C0A220023089800F006F9099B041C13
:40378000311C08980A229E4205D1002300F0FCF8061C09900AE0002300F0F6F80999061C0A220898002300F0EFF809900E955DE7211C08980A22002300F0E6F8041C201C2D
:4037C000391CFFF7F0F934226B4630309B180D901B780B9A2B700C9B0135EB1A9342E7DB131E00DC0123099600260C9AD3180493211C0898012200F035FA391C0A9000F076
:4038000083FA002805DC15D10D9BDB0701D411E00493049B013B1A78392A08D10C9A9342F6D1039B013303933123137009E001321A7006E0049B013B1A78302A01D104934F
:40384000F8E70898391C00F086F8099B002B0ED0002E05D09E4203D00898311C00F07BF80898099900F077F801E0119B039308980A9900F070F80023049A0C981370039B6E
:40388000229A01331360249B002B10D0049A1A600DE00B9B002B00DDBDE6209B022B00DD8AE6B8E6209B022B00DD85E6B8E61BB0F0BDC046004870474804002008B5034BF0
:4038C000011C186800F04EFB08BDC04644040020C9B28218904204D003788B4202D00130F8E70020704770B5466A041C0D1C002E07D11020FFF7E2FF606246608660066024
:40390000C660666AF368002B09D0626AAB00D268D318186800280ED002681A6017E0201C0421212200F0CAFA636AF060DB68002BEBD100200EE001210E1CAE40721D92002D
:40394000201C00F0BBFA0028F3D04560866000230361C36070BD70B5456A061C0C1C002D07D11020FFF7AAFF7062456085600560C560002C07D0726A6368D2689B00D318D7
:403980001A6822601C6070BDF7B51E1C14239C46071C0C1C00200D698C44634619881B6851431B0C534389190E0CF31889B21E0C1B045B186146013008C18C46A842ECDBAA
:4039C000002E1BD0A3689D4212DB6368381C591CFFF789FF211C236901909A1C0C3192000C30FEF724FC211C381CFFF7B4FF019C2B1D9B00E31801355E602561201CFEBD6F
:403A00000022031C010C914201D103041032190E01D108321B02190F01D104321B01990F01D102329B00101C002B03DB20205B0000D5501C70470722036810B5011C1A40CD
:403A40000CD001240020234223D10222134203D0E340201C0B601CE09B0818E098B2002801D110221B0CD8B2002801D108321B0A180701D104321B09980701D102329B080C
:403A8000D80704D45B082020002B02D00132101C0B6010BD10B50C1C0121FFF724FF01234461036110BDF0B50B69141C126989B00D1C934201DA251C0C1C2F692669AA687E
:403AC000BB1969680093934200DD0131FFF70BFF011C009B1431844698000B1C0818834202D2002204C3FAE71435BF00EB191434B6000493A31902950693069B9C4256D26D
:403B000023880393002B22D00E1C0027029B0193019B039D04CB059601933388079393B26B43079D120CEB183568DB192F0C039D6A43BA181F0CD219170C9BB21204134381
:403B400008C6019A049B9A42E2D3059B5F6023681B0C019321D000220D1C0B68029F03923E88019A9BB256432A680595120CB218039E9219160433432B6008CF019E1B0CC3
:403B80007343AE88120C9B199B181A0C0392049A0435BA42E4D8059A536004340431ACE704380368002B05D1009B013B0093009B002BF5DC63466046009A1A6109B0F0BD85
:403BC0000323F7B51340051C0E1C141C002B07D0224A013B9B009A580023FFF7D5FE061CA310019337D06C6A002C07D11020FFF765FE6862446084600460C4606F6ABC6858
:403C0000002C10D1281C1649FFF744FF0023B860041C036007E0019B5B1001931BD0206800280FD0041C019BDB07F4D5311C221C281CFFF738FF071C311C281CFFF78BFE4B
:403C40003E1CE8E7281C211C221CFFF72CFF002320600360E6E7301CFEBDC0466067010071020000F0B50C1C171C2369551185B0EB180193013300934968A3680290009AB3
:403C80009A4202DD01315B00F9E70298FFF72BFE021C061C00231432AB4204DA0020990050500133F8E7EB43DB171D40231CAD0055192269143392009A1894461F221740E4
:403CC00014D00132D21B039200221968281CB9400A4304C504CB0399CA409C45F5D84260002A07D0019B0233009303E004CB04C59C45FBD8009B0298013B3361211CFFF7A4
:403D00002AFE301C05B0F0BD03690A6910B59B1A041C181E12D1930014341431E218C918043A043913680868834204D083429B410120184302E0A242F2D8002010BDF0B5E2
:403D4000071C85B0081C0C1C111C151CFFF7DCFF061E07D1381C311CFFF7C5FD01234661036155E000230193984204DA231C2C1C1D1C01230193381C6168FFF7B4FD019B70
:403D800026692F1CC3601434B300E318021C02932B69002514379B00FB180393143208CC69469C4608CF0432009363468B808B885D19009B9BB2EB1A65460193009B2D0C8D
:403DC000190C019B691A1D14131F9C466B4649199B880D1409040B4361460B60039B9F42DDD30299131C8C420BD208CC99B249190D141B0CEB181D1489B21B040B4308C263
:403E0000EFE7043B1A68002A01D1013EF9E7066105B0F0BDF7B51D1C0121089F141CFFF762FD2B036D00061C1B0B6D0D02D08022520313430193002C18D068460094FFF778
:403E4000FAFD009C002809D02023019A191A131C8B40C24023437361019200E07461019CB461631E9C410134346107E001A8FFF7E2FD0124019B346173612030002D06D063
:403E80000B4BED1835232D183D60181A0BE0094BC018094B3860E3189B00F3185869FFF7AFFD6401201A099B1860301CFEBDC046CDFBFFFFCEFBFFFFFFFFFF3F4A4338B529
:403EC000111C141C00F04EF8051E03D00021221CFEF7B6F9281C38BD30B500293ED004390B68002B00DAC9181D4A1368141C002B02D14B60116031E099420DD208680A18C2
:403F00009A4203D11368C3180B6053684B60216024E08A4203D8131C5A68002AF9D11D685C198C420BD10968691858181960904214D110685268091819605A600EE08C4221
:403F400002D90C23036009E008680C18944203D114685268001908604A60596030BDC046B0130020032370B5CC1C9C430834051C0C2C01D20C2405E0002C03DA0C230020D6
:403F80002B6042E08C42F9D3204A1368101C191C002913D00A68121B0DD40B2A02D90A608B181FE08B4202D15A6802601BE04A685A600B1C17E00B1C4968E9E7144E3368DE
:403FC000002B03D1281C00F07BF93060281C211C00F076F9031C421CD0D00322C61C964386420AD11C60181C07210B301A1D8843821A0AD05142995007E0311A281C00F09D
:404000005FF9431CBAD0331CECE770BDB0130020AC130020F0B58E6885B0071C0C1C03920193B34245D390238A89DB001A423DD003250969236801985B1A029363695D439F
:40404000EB0F5D19029B6D1001331B189D4200D21D1C381C53050FD5291CFFF783FF061E13D0029A2169FEF7E2F8A289184B134080221343A38111E02A1C00F047F9061E94
:404080000CD1381C2169FFF727FF0C23402201203B60A38940421343A38117E0029B2661F61826606561019EED1AA560019BB34200D2019E321C2068039900F013F9002004
:4040C000A3689B1BA36023689E19266005B0F0BD7FFBFFFFF0B59FB0029005938B890E1C171C1B0610D50B69002B0DD14021FFF739FF30603061002804D10C23029A013897
:404100001360D0E040237361002306AD6B6120336B761033AB763C1C2378002B03D1E31B049312D003E0252BF9D00134F4E7049B0298311C3A1CFFF76DFF431C00D1ACE07C
:404140006A69049B944663446B612378002B00D1A3E00122002352426A6002A95432521801342B60EB60AB601370AB654F4F2178381C0522FFF7ACFB002808D0C01B01272C
:404180008740381C2B68013418432860EEE72B68DA0604D55322202102A8121811701A0704D553222B2102A81218117022782A2A01D0099B0EE0059A111D12680591002AA5
:4041C00001DB099204E05242EA60022213432B60013409E02278303A092A04D80A214B4301349B18F6E7099323782E2B18D163782A2B09D1059B02341A1D1B680592002BFD
:404200000DDA01235B420AE0002301342278303A092A04D80A214B4301349B18F6E70793234F2178381C0322FFF752FB002807D0C01B40278740381C2B680134184328609B
:4042400021781C480622671C2976FFF741FB002812D0194B002B06D10722059B073393430833059314E005AB00930298291C321C124BFEF783F807E005AB00930298291C6F
:40428000321C0E4BFEF726FB0390039B013304D06B69039A9B186B613DE7B3890B985B0601D5012040421FB0F0BDC0466C67010072670100766701007D2300001540000038
:4042C00038B50023064C051C081C2360FCF7FCF8431C03D12368002B00D02B6038BDC046C81F002010B5814208D28B18984205D29B1A013A09D3995C8154FAE70023934242
:4043000003D0CC5CC4540133F9E710BDF8B5061C0C1C151C002904D1111CFFF723FE041C18E0002A03D1FFF7D7FD2C1C12E000F013F8A8420ED2301C291CFFF713FE071E83
:4043400007D0211C2A1CFDF772FF301C211CFFF7C3FD3C1C201CF8BD0B1F1A68101F002A04DA891804390B68D01804387047000002B4714649084900095C49008E4402BCA2
:404380007047C0468446101C62468C46191C634600E0C0461FB500F033FF002801D40021C8421FBD10B500F077FE4042013010BD10B500F025FF002801DB002010BD01207D
:4043C00010BDC04610B500F01BFF002801DD002010BD012010BDC04610B500F0A1FE002801DC002010BD012010BDC04610B500F097FE002801DA002010BD012010BDC046CC
:40440000F0B5454657464E4694464C000A03C90FE0B488460E1C1903470FC500480A6146490F01436046520A1743C0005A00640D520DDB0F8446984500D1A7E0A01A0028A7
:4044400000DC01E1002A3DD163460B4300D0D4E06B0700D188E00F232B40042B00D183E02A1DAA42AD4180236D427F191B043B404646151C002B00D17CE0CC4B01349C423C
:4044800000D1FDE03A1CCA4BED081A405007640552020543120B640D002112030B0D1B056405120B1A436308C24CF60714401C43640064083443281C211C1CBC90469946DB
:4044C000A246F0BDB94B9C42C2D080231B041943382800DDECE01F2800DD21E120220E1C6346121A9640C340334366469640321C561EB24113430A1CC240EB1A9D42B64146
:404500001D1CBA1A7642971B3B0200D497E07A02560A002E00D1B6E0301C01F08FFD031C083B1F2B00DDB7E09E40371C28262A1C361AF240161C9D403E439C4200DDB2E0FE
:404540001C1B621C1F2A00DDD8E01F23291C1C1B331CA540A340D1406C1EA541D64019430D43371C002473E780231B043B40464600D082E78D4BED0878070543FA089C4249
:4045800032D012036405120B640D85E7A31A002B00DC94E0002A3CD0844A944200D157E7802212041143382B00DC05E163461943481E81410022C8B24019A8429B41051C26
:4045C000D2195B42D7183B0239D5784B01349C4200D14CE10120764A6B083A4028401843D5070543570833E72B1C134348D080231B031A431203120B4EE70138002878D113
:404600006346EE1AB5429B417A1A5B42D71A351C7AE7021C0A4300D11AE7013B002B00D0F2E04019A8429B41CA195B42D718051CC9E7131C334300D118E1171C351C4646FE
:404640006B0700D007E795E700287AD1621C5205520D012A00DCFBE06246AA1A9542B6419146781A7242861A320200D493E06246551BAC458041CF1B40423E1A984648E7F8
:404680000022002508E7281C01F0D8FC2030031C083B1F2B00DC47E7283885402E1C00259C4200DC4CE7424AE41A1640371CCFE6634619434B1E99410022CBB21DE7002B36
:4046C00000D0F2E0601C43055B0D012B00DCA4E0364B984200D121E163465C19AC429B41CF195B42FA186408D50725435708041CAEE62E4B9C4200D0EAE6A9E6211C331CDE
:404700001F39CB40191C202A00D182E03F231C1BA64035436E1EB54100270D4300248EE7031C0E1C203BDE40202874D040231B1A99400B1C62461343591E8B41002233431C
:40474000DBE6002C50D0194CA24200D1A8E08024240440422743382800DDD9E01F2800DD39E120243E1C241AA640B0462E1CA146C640444626434C46A5406C1EA541C740CE
:4047800035436046451BCF1BAC45894149427F1A141C9846B8E64B464D46334300D0B8E60026002700240025E4E6C046FF070000FFFF7FFFFFFF0F801F2B5BDC2022081CA2
:4047C000D21A9040814660469246D8404A4610438146524660469040021C501E8241484610430A1CDA40E7E63C1C2C4358D0C043002851D16046451BAC458041CF1B40424B
:404800003F1A141C98467FE68F4A944200D0CAE61EE600267DE700238CE73B1C2B43002C00D0BDE0002B00D1F5E063460B4300D10EE663465B19AB428041CA19404217180F
:404840003A0200D4FCE0814A1D1C17400134FFE53A1C2A43002C51D1002A00D085E062460A4303D00F1C65469846F1E50026002700257FE6181C0A1C2038C240202B00D16F
:40488000A7E04020C01A8140081C63461843411E8841104300228FE66B4CA24200D05AE70F1C6546141C9846D2E5002C3AD1381C284371D0DB43002B18D0634882426BD0E3
:4048C000382B00DD9DE01F2B00DDA7E020203C1CC01A8440A1462C1C8246DC404846044350468540681E8541DF402543654465459B417F185B42FF18141C64E6002A19D1F9
:4049000062460A4377D00F1C654698464E4C9FE53D436F1EBD410027EDB232E7041C0027002527E64848824236D0802000045B420743C5E762460A4349D08024ED0878074F
:40494000FA0824032843224209D0CE08264206D162464F07381CD20810439846321CD200470F1743C500384C72E562460A4300D16EE56246AE1AB5429241781A5242821A6F
:40498000100200D455E66246551BAC458041CA1B4042171A98465BE50F1C6546141C57E5002B34D063460B4311D08024ED087807FA08240328432242D1D0CB082342CED185
:4049C00062464F07381CD20810431A1CC7E71E4C3EE5002059E7041C3E1C203CE640341C20282BD04026301A87403D436F1EBD4100272543C5E680270026FF03124C0025CA
:404A0000B8E53D436F1EBD410027EDB26EE70F1C65460D4C1CE50F1C654619E51C1C381C203CE040041C202B0CD04020C31A9F403D436F1EBD410027254357E70027D4E78A
:404A40001D1CFCE50027F3E7FF070000FFFF7FFFF0B55F4656464D464446F0B40F0387B098464D003B0BCC0F061C924681469B466D0D01946BD0664B9D4235D080275B4694
:404A80007F031F43F3009946624BFF00400F9C4607430023BB46002665440093424617035000D20F53463F0B400D904600D172E0574A904267D080235B031F435346554A52
:404AC0005B0FFF001F43944653460021DB0060444246624092462D1A0E430F2E00D9A1E04D48B600805987465B461E4300D076E000239B469946023308260093CEE7994621
:404B00004346BB4601930091009B022B6BD1019B9A46002153460122002789461A403C4B00213F030C0D24053F0B27433B4C1B0527401F437F00D2077F0817434846391CAD
:404B400007B03CBC90469946A246AB46F0BD03433ED05B46002B00D19CE1584601F06EFA2823311C1B1A021C5F46D940083A97400B1C96403B439B46B1460023284D002613
:404B80002D1A00938AE7524603213A43A0D10027002302219CE752463A4315D0002F00D185E1381C01F04AFA021C28215046891A131CC8405146083B99409F400B1C07434D
:404BC00017480021801A83E70027002301217FE700239B4699460133042600935EE703230C2600935AE7032B00D13CE2012B00D0BFE11A1C019B1A400021002300278946FB
:404C00008EE700238027994600223F03004B87E7FF07000001FCFFFF80670100FFFF0F800DFCFFFFBB4500D951E100D14CE14A46039200225C469046013D180E3F023843D4
:404C40001B020193030C994603041B0C4946061C201C1F1C0093FDF72DF9021C7A4302904946201C171CFDF7ABF9039B09041B0C19438F420CD9029B8919013B8E4200D987
:404C800052E18F4200D84FE1029B8919023B0293CC1B201C4946FDF70DF9009F834647434946201CFDF78CF9039A0B041404240C23439F420DD95A469B19013A9E4200D98C
:404CC00030E19F4200D82DE10222524294469B19E344029ADB1B17045A463A439346019C170C220C101C04925A4611042204120C141C090C7C4305924A4341434743611874
:404D0000100C09188C4203D980204002844667440C0C12040804120C3C198118A34200D2E5E000D1DFE01F1B43465C1AA04592415242BF1AB74200D10EE1381C4946FDF7F5
:404D4000B9F8009B029043434946381C9846FDF737F9230C0F041F43B8450CD9029BBF19013BBE4200D9FBE0B84500D8F8E0029BBF19023B02934346FF1A4946381CFDF792
:404D800099F8009B039043434946381C9846FDF717F924040904240C214388450CD9039B8919013B8E4200D9DCE0884500D8D9E0039B8919023B03934346C91A029B039A76
:404DC0001B04059C1A43100C13049146221C049F1B0C5A4344437B437843E318170CDB199C4203D980246402A44660441C0C12041B04120C00199B18814200D296E000D160
:404E0000FCE04A4601231A4391469B4BEB18002B00DC99E04A4652070AD00F2249460A40042A05D00431494592418946524293445A46D20106D55A46904B1A408023934606
:404E4000DB00EB188E4A934200DD62E64A465946D208490711435A4689465702514601225B053F0B5B0D0A405AE680205A460003024208D0074206D107433F0399463F0B83
:404E80004246804B4CE65F4607433F033F0B221C7C4B45E601F0D2F8031C2030272800DC5EE6083B9E400023B346994665E6504601F0C4F8021C2032272A00DC75E65746EA
:404EC0000838874000237BE6994500D2AFE65A46594654084A46C8075208024303924A46D2079046A9E60027884500D31CE7019F5A46BC46E044B845BF417F42BF19FF1809
:404F0000013ABE4206D2BC425FD800D19FE03F1B934609E7B742FAD1019B4345F3D9371B934601E79346D4E60293B1E64A468919013A8E4218D99146814200D061E7019AB5
:404F40009A4200D05DE760E74F4F7F1B382F13DD012253461A404FE601235B42994654E7029308E7039327E788423CD874D0914647E7019B9A4648E71F2F44DC434B4A46BF
:404F80009C465B466544FA40AB4013434A46AA40151C6A1E95415A46FA402B43171C5A0709D00F221A40042A05D01A1D9A429B415B42FF18131C3A023ED553460122002100
:404FC0001A40002701238946AAE502235B429C46019AE3449446E04490459B415B429B19DF193F1BA0E6019F4A467C00BC42BF417F42BF19023AC91901949CE7002B95D166
:40500000002201929BE75A46214B5B1BDA40202F27D0204B9C465B466544AB4049460B43591E8B411343072200271A4007D00F2200271A40042AB8D17A077F023F0BDB0846
:4050400013439946012253461A40002368E54145BBD89346002767E6019C9C42C3D391466DE70023DAE780275B463F031F433F033F0B019A034B53E5FF030000FFFFFFFE59
:40508000FE070000FF07000002FCFFFF1E040000E2FBFFFF3E040000F0B55F464D4644465646F0B41F035C00DB0F99461B4B0E034D00C90F8446360B6D0D8B4690463F0BAA
:4050C000640D9D420CD0154B9C4210D00123A54214D0181C3CBC90469946A246AB46F0BD311C01230143F4D10C4B9C42EED13A430123002AEDD10123A542EAD1BE42E8D19A
:40510000C445E6D1CB4506D0002DE2D13043031C581E8341DDE70023DBE7C046FF070000F0B5574645464E46E0B40F034E00C90F8A4632491D035C0084463F0B760D904607
:405140002D0B640DDB0F8E420FD08C4239D0002E10D13843414241418946002C27D12A4325D1002000290ED108E0391C01432ED1B44226D0002C0BD09A450DD053465942A6
:4051800001231943081C1CBC90469946A246F0BD2A43F3D09A45F1D1A642EFDC1ADA504641424841012341421943081CEBE74A46002AE1D058425841012241421143081C5A
:4051C000E1E7291C114302D1002EC2D0D4E702204042D8E7AF42D1D809D00020AF42D2D2504641424841012340421843CBE7C445C4D80020C445F3D3C5E7C046FF070000D4
:40520000F0B55F464D46444656468046F0B4061C0803000B84462C484C001F035D00C90F640D8B4691463F0B6D0DDB0F844212D0854225D0002C14D161460E43704246417B
:40524000002D35D0002E21D058425841012143420B43181C0EE06146022031430AD1A5420ED0002D12D13A4310D15B46594201231943081C3CBC90469946A246AB46F0BD35
:40528000391C02201143F5D1002CD5D09B45ECD1AC42EADC05DBBC45E7D80FD00020BC45E8D2584641424841414201200843E1E73A43C7D10020002EDCD1D6E7C845D4D8FA
:4052C0000020C845EDD3D5E7FF070000F0B55F4656464D464446F0B4051C061C080387B099464F00030BCC0F92469B467F0D019467D06C4B9F4236D080205B46400318432E
:40530000C0006B0F1843684B83469C4600239846EE00674400934B4649461D03C90F5B0052462D0B5B0D894600D16EE05D498B4264D080205C4940038C4600210543ED005D
:40534000500F0543D20063444846FF187B1C9A46009B604002900B430F2B00D9ACE053489B00C3589F465B461D4300D082E00823009300239B46023300269846CBE7029B84
:4053800001934346022B59D1012400250026019B1C40444B00212D030A0D12052D0B1543434A1B0515401D436D00E4076D082543301C291C07B03CBC90469946A246AB460E
:4053C000F0BD2B434ED05B46002B00D185E1584600F034FE021C2823291C9B1A161C5846D940083EB0400B1CB54003439B462E1C0023304F0093BF1A98468CE75146294340
:405400002ED10025002202219EE75146294323D0002D00D154E1281C00F010FE031C28215046C91A1A1CC8405146083A914095400A1C05431F480021C31A85E7032B00D137
:40544000C2E1012B00D06DE14446019B00251C40E4B2002300269DE700250022012173E7032171E70423009300239B4601330026984650E70C230093093B98464BE780250E
:4054800000242D030026074B84E74B46AB46161C0193884675E7029BAB46161C019388466FE7C046FF07000001FCFFFFC0670100FFFF0F800DFCFFFF330C3604360C9C466B
:4054C000331C140C1204120C53439846634653439946634663430193331C41466343090C4B445B18994505D9802040028146019949440191190C039141460904090C1B0462
:405500005B1804932B0C9846331C2D04290C4B43604600934346654658435E43009B4D431B0C9946AE194E448446B54203D980235B029946CC44350C2B1C039863448446B6
:405540000593009B36041B041B0CF3189C446046039058460504060C280C84465043351C81466046654344434846000C8346724314195C44A24203D98022520293465D4408
:40558000220CAD184A461204120C24044046A41862464A437143464360460096464670438046100C84468844E044414505D9802149028C4600996144009101980399844651
:4055C000614499429B415B4299460598434684461204120C1B049B1863449C46AB4683429B4140460A19CC44A2428941E344CC45B6415C46000C8046494276425B4264185C
:40560000334398448C428941AB459B4149425B4219430D1C009B4544EE187602E50D2E43B346049B56021E43731E9E415B46D20D324366021643DB010AD5012333407608BB
:405640001E435B46DB071E435B465B089B465746634BFB18002B5ADD720709D00F223240042A05D0321DB242B6417642B344161C5A46D20106D55A465A4B1A4080239346C4
:40568000DB00FB18584A934234DD0124029B00251C400026554B7DE680205B460003034208D0054206D105432D032D0B4C46161C4E4B6FE65D4605432D032D0B4B4B69E6EF
:4056C000504600F0BBFC031C2033272B00DCA6E65546083885400022ACE6281C00F0AEFC021C2032272A00DC75E6083885400026AB467DE65A46F608520716435A46012483
:405700005502029A5B052D0B5B0D144042E6384DED1B382D0ADD0124029B00251C400026002337E6019B5746029391E71F2D25DC304B321C9C466744BE405B46BB40371CA2
:40574000EA407E1EB74113433B431E1C5B46EB401D1C730709D00F233340042B05D0331DB342B6417642AD191E1C2B0220D50124029B00251C40002601230BE65A461E4BBF
:40578000DB1BDA40131C202D1CD01C4A94465A466744BA40171C3E43721E96411E4307230025334007D00F2300253340042BD6D16B076D022D0B0124F6081E43029B1C40A1
:4057C0000023E7E50027E6E780255B4601242D031D43019B2D0323401C1C2D0B034BD9E5FF030000FFFFFFFEFE070000FF07000002FCFFFF1E040000E2FBFFFF3E040000DD
:40580000F0B54D4644465F465646F0B40E1C111C3203520A470F1743C5001A035800DB0F9946520A4B0F83B01A43CB000193CF4B7400F60F640DB046400D984200D1E8E0C7
:405840000123494659400B1C9E4200D1B1E0261A002E00DC1CE1002842D1131C01990B4300D0E6E06B0700D18EE00F232B40042B00D189E02A1DAA42AD418023012641461B
:405880006D427F191B043B400E40151C002B00D183E0B64B01349C4200D116E13A1CB44BED081A405007640552020543120B640D002112030B0D1B056405120B1A43630803
:4058C000AC4CF60714401C43640064083443281C211C03B03CBC90469946A246AB46F0BDA24B9C42BED080231B041A43382E00DD03E11F2E00DD3FE12020831B9946131C7D
:4059000049468B409C46019B6046F34003430198F2408840011C481E81410B43EB1A9D4280411D1CBA1A4042171A3B0200D4A8E07A02560A002E00D1CAE0301C00F07EFB12
:40594000031C083B1F2B00DDCBE02822291C121AD1409E400A1C9D4032439C4200DDC8E01C1B671C1F2F00DDEDE01F23291C1C1B131CA540A340F9406C1EA541FA401943C8
:405980000D43171C00246DE78023012642461B043B401640002B00D07BE7744BED0878070543FA089C423BD012036405120B640D7EE7231A9A46002B00DCA5E0002844D091
:4059C0006A48844200D14DE78020000402435346382B00DC1CE1019B1A43511E8A41D1B200224919A94280410D1CD219404217183B0246D55D4B01349C4200D169E1012072
:405A00005B4A6B083A4028401843D5070543570828E7131C01990B4300D111E74B4613E72B1C134351D080231B031A431203120B3EE7013E002E00D080E0691A8D429B4116
:405A4000BA1A5B42D71A0D1C6FE7101C019B184300D107E701235B429C46E2445346002B00D002E1019BD2195919A9429B415B42D7180D1CBCE76346034300D128E1071C1F
:405A800065466B0700D0F0E6012643461E4084E7002E00D081E0601C4005400D012800DC07E10199681A84466545B641B81A7642861B300200D4A1E08C464D1BAC45894122
:405AC000D21B4942561A984634E700220025EFE6281C00F0B3FA2030031C083B1F2B00DC33E7021C283A95402A1C00259C4200DC36E71F4FE41A1740B4E6019B1A43511E7A
:405B00008A41D3B2002209E7002B00D001E1601C43055B0D012B00DCB0E0144B984200D11EE1019BD2195919A9429B415B42D2184908D5070D435708041C93E60B4B9C4269
:405B400000D0D3E68EE6211C131C1F39CB40191C202F00D18EE03F231C1BA24015436A1E954100270D4300248BE7C046FF070000FFFF7FFFFFFF0F80331C101C203BD84055
:405B8000202E79D040239B1B9A40131C019A1343591E8B4100220343C0E6002C53D0C74CA04200D1B0E0802471428946240427434946382900DDCDE01F2900DD59E1202470
:405BC0003E1C611A8E408A46B04649462E1CCE405146B4468D4064464646494626436C1EA541CF4035430199D71B8C464D1BAC4592415242BF1A041C984696E6634665460D
:405C0000334300D096E60026002700240025C4E61F2B61DC2020C31A9B46131C59468B4051469946019BCB409C464B46604603439C465B46019999406346481E81411943A5
:405C40005346DA40CDE63C1C2C435DD0F1438946002955D10199D21B8C464D1BAC4589414942571A041C98465FE69448844200D0ADE6F7E5002271E7002387E73B1C2B430C
:405C8000002C00D0DAE0002B00D113E1131C01990B4300D1E6E54919A9429B41D2195B42D7183B0200D421E1854B0D1C1F40041CD8E5381C2843002C40D1002800D083E04C
:405CC000101C0199084303D0171C0D1C9846C9E500260027002560E65046131C2038C340181C5346202B00D1C1E0402351465B1A9A40019911434A1E91410022014370E649
:405D00006E4CA04200D053E7171C019D041C9846A8E5002C28D13C1C2C4300D18AE0DB439A46002B00D082E0019BD2199C4665449D42894149425718041C59E600285BD177
:405D4000101C0199084300D1A4E0171C0D1C98465A4C87E53D436F1EBD410027EDB242E7041C0027002518E6544CA04262D0534680245B429A46240427435346382B00DD34
:405D80008EE01F2B00DD9DE02024E31A9B463B1C59468B40514699462B1CCB409C464B46644623439C465B469D4063466C1EA541CF401D43019BBF189C4665449D4292410B
:405DC0005242BF18041C13E6101C0199084300D148E5681A844685428041BE1A4042301A060200D447E68C464D1BAC458941D21B4942571A984635E5101C0199084334D0A4
:405E000080247807ED08FF0824032843274208D0D608264205D1C90852070A43101C371C9846FF00420F1743C500244C1AE5234CA042A2D1171C019D041C13E5002B35D0C5
:405E4000131C01990B4310D080247807ED08FF08240328432742E4D0D3082342E1D1C90852070A43101C1F1CDBE7144CFAE400223FE74C463E1C203CE6404946341C2029AF
:405E800032D04026761AB7403D436F1EBD4100272543A8E680270026FF03084C00257CE53D436F1EBD410027EDB283E7171C019D024CD7E4171C019DD4E4C046FF07000078
:405EC000FFFF7FFF54463B1C203CE3401C1C5346202B0DD0402351465B1A9F403D436F1EBD410027254365E70027CDE70D1CC8E50027F3E70B0330B5134C1A0B4B00051CF4
:405F00005B0DC90F0020A34210DD104883420EDC80200F4C40030243E41A1F2C0ADD0D48C31ADA40131C48424340581830BD0A4BC818FBE7281CE040084CA44663449A4056
:405F4000131C0343EFE7C046FE0300001D0400003304000013040000FFFFFF7FEDFBFFFF38B5041E16D0C50F00D04442201C00F065F8174B1B1A0A2821DC021C211C1532EE
:405F800091400A1C0B21081AC4405B052403240B5B0D03E000250023002400220021101C24030A0D1205240B14430A4A1B0514401C436400ED0764082C43211C38BD0B3812
:405FC00084405B052403240B5B0D0022E6E7C0461E040000FFFF0F8010B5041E10D000F02DF8144A121A0A281ADC0B23211C1B1AD94015300B03520584401B0B520D01E000
:406000000022002300211B03201C1C0B0B0D1B052343094C1205234013435B00590810BD031C0B3B9C40520523031B0B520D0024E8E7C0461E040000FFFF0F801C210123E1
:406040001B04984201D3000C10391B0A984201D3000A08391B09984201D30009043902A2105C40187047C0460403020201010101000000000000000010B501F0E5FB10BD31
:4060800010B500F067F910BD10B50749044609780220002907D1204601F0F7FB002802D1204609F0FFFC10BDC0020020FFB585B0002568460E9F057339481C46007800284A
:4060C00002D0082009B0F0BD10990F9801900097029105A807C800F067F80028F2D10120694603AA0D73002C1BD0002113E08B00E55A082D09D91E19B678002E05D0083DC9
:40610000E55213785B1C137003E0042901D2012003E0491CC9B2B942E9D31178042900D300200028CED110990F9800F03FFF002801D00120C6E701F087FB1A48059901609C
:4061400021888180A188C180A27A0272A17B4172A089012540084843A0810220A073208950432081A5726846037B22460799069800F0A2F80028A5D16846094C007B6070F8
:4061800001F06AFB00289DD1064806F089FD002898D106F0A5FD002894D1257092E70000AC010020EC040020FFB53A4F1C4603463F780020364A0A9E0B9D002F12D10029BE
:4061C0000FD0029991420CD3002B0AD0002C08D00999042905D3002E03D0FF216E318D4202D2012004B0F0BD00210A460D463FE08B001E19B678002E36D0E35A002B33D06C
:4062000073435B199DB20B0000F048F806040E15191D253F2388FF27A678233BEB37BB42DFD2032EDDD31FE0A3880C2BD9D91A4EB342D6D818E02389302BD2D114E0A38905
:40624000482BCED110E0228A134E1346233B223EB342C6D208E0A38A0F4F1E46233E223FBE42BED29342BCD80028BBD1491CC9B2099B9942BCD319461C2251434A19044956
:40628000521802998A42ACD8ACE70020EEE70000D8080000AC010020DCFF000030B47446641E2578641CAB4200D21D46635D5B00E31830BC18470000FFB50F460646002440
:4062C000384381B01D46800701D0012438E0FBF7A3FDFBF791FD00F097FA00282ED100F0BBFB00282AD11849084600F093FE0004000C23D13000154E04D03060B7800020F5
:40630000F0803581AD1DEFB23946039800F046F804000ED1B088F2880837801AF9B280B201F068F9002801D0012407E0E8B200F019F900F031F906490120087000F076FAE4
:40634000204605B0F0BD000089640000F8040020AE01002010B503480078012801D100F0EBFF10BDAE01002070B5084B0446DA889E8800205518B54206D81D68AA1822600F
:40638000DA885118D98070BD032070BDF80400200148008970470000F8040020F0B587B007460D4600208900009006916846FFF7DBFF844600285DD13048009901600021FE
:4063C00017E02E4B88001A680629115406D22C4C0419667882185670628805E0C419203CA67A8218567022891B68C018491C4280C9B2A942E5D300242DE0601CC2B205905B
:4064000025E01E4FA30039689600581840887118039604904E88B04217D938466F46FE80B6464F786E4677710297049F4F800168039F5E18767879184E70016876465918FB
:406440004E800068029F18184770521CD2B2AA42D7D30598C4B2AC42CFD36046002809D168460699FFF780FF8446002802D1054900980860604607B0F0BD0000B0010020DB
:4064800038680100B40100207047000010B5002809D005494A68002A05D0011F08788000105801F055F810BDB001002010B50446FFF76EFFC0B2801DA0420CD3074840684D
:4064C000002808D0A100405800F0B4FF002801D00470001D10BD002010BD0000B0010020F8B516460D460446FFF752FFC0B2801DA04203D20020C0430090F8BDB2B2E9B291
:40650000684600F0BDFF0099481C03D0024AA000526811500098F8BDB0010020F8B50746FFF736FF801DC6B20A49002005460C680DE06178002907D06188B94202D3207889
:40654000FFF7B4FF002804D1241D6D1CEDB2B542EFD3F8BDB001002010B5002801D0FFF795FF10BD70B506460948002504680BE06178002905D062882078121D0023FFF7D9
:40658000AFFF241D6D1CEDB2B542F1D370BD0000B0010020002070471CB5002469460C70142001902346054A05480DF0A7F904480068401C00D1FF2420461CBD15660000EF
:4065C000B80100203EB5124A0146FF2000230124126800290DD0012914D0042908D104206946009308814B8110460DF082F980B23EBD6846009304814381694610460DF0EF
:4066000073F9F4E768460093048143816946EBE7B801002070B545890468416800890300FFF73CFE06240408081D2124002005F0DDF91BE0022908D0C8B22A4621460BF096
:4066400071FB2046FFF788FF10E002202A4621460BF068FB2946204600F00AF806E000200CF040FE02E020460DF0CEF9002070BD014B0022DB681847BC01002070B5448945
:4066800005680089022803D0032809D0FF2070BD2246094C0023A46829460120A04708E0FFF7EAFC241DA2B200232946022006F0DAF9002070BD0000BC010020704700007D
:4066C000024800214160018041807047BC01002070B50C46002186B016460391012802D0022859D116E003A9012006F014FA01281BD1039D324621462846FBF798FD0095C6
:40670000287801900220694608814E816846FFF7B5FF41E0214D002B686809D0049004A9022006F0F8F901281DD0022006B070BD002812D0298840182146FBF778FD28884E
:406740000024801980B228806988091D884206D12C801348FFF792FF03E00320E6E788421AD96C6018E004986860E278A378110219430B4A698000231060E35653600323BD
:4067800013815181A1788170E178C1706178417021780170042028800020C7E7BC010020040500203EB515460C46022803D004280CD000203EBD009101900220694608816F
:4067C00007484A8100680DF094F807E00BF0AAFA044B0022DB6829462046984701203EBDB8010020BC010020014AD16090607047BC010020034801688068081A0A2148435A
:40680000000970471005002010B5FBF7F9FA542204490548FBF70BFD03490120C870002010BD000054680100F007002010B5FBF7DFFA10BD70B5134C2368002B08D0207B3F
:406840001149C20705D04008400020738868A08070BD88680B4AA18880B29268814203D90A4D691A091802E0814202D2411A5118A160A080A0689842EAD300F015F80DF09D
:4068800055F870BD10050020C0102E40FFFF000010B508461946FFF7A7FF10BD704710B5FFF780FF10BD000003480021016041608160C160704700001005002010B5020031
:4068C0000DD0FFF7F1FF074C0321207B0843207310010A21FBF774FB2060002010BDFF2010BD00001005002000B504480A21806848430209FFF7D8FF104600BD10050020FB
:406900000248007B8007C00F704700001005002010B537490868002802DA364B01221A70022290430860344800693149C00B4031096A08425AD0012000F012FA2E482F497D
:406940007C30FBF7E1F92A480E216C30FBF7DCF9294820218430FBF7D7F9274814219C30FBF7D2F92448FF21C131A430FBF7CCF92148FF212F31B030FBF7C6F91E482049F4
:40698000BC30FBF7C1F91C481E49AC30FBF7BCF91C491948491CB430FBF7B6F916481A49B830FBF7B1F914481849CC30FBF7ACF9114817490830FBF7A7F90F481549A8309C
:4069C000FBF7A2F90C4814498830FBF79DF90A4812498C30FBF798F907481921C9029030FBF792F9FBF792F9002010BDFF2010BD00F02E40CC01002000002E4055650000D3
:406A0000320300002F3F00003102000010520000EC160000FA12000031D000003AE3000070B50646581C80B245086D00002408E0304600F067F81055000A1119A41C48703F
:406A4000A4B2AC42F4D3D80705D0D0182038D15CC47FD454C17770BD10B5FF2000F080F90F49FF2048700E481021801D41800121417001700A490020C91C4870FFF748FF28
:406A800004000AD100F0CCF807210648FBF73AF9044807211830FBF735F9204610BD0000CC010020CC112E4030B504465B1C1804450C002308E0204600F024F8241D590037
:406AC0005B1CA4B250529BB2AB42F4D330BD000070B500210A4D5B1E0AE0541864782602545C344346193480001D891C80B289B29942F2DB994202D1515C4019018070BD56
:406B000000102E40014940180088704700102E40014A80180180704700102E4010B50B490020487000F07CF8002000F03FF9002000F02CF907210648FBF7E4F80448072155
:406B40001830FBF7DFF8002010BD0000CF010020CC112E4010B50B46062812D006DC01280CD0032801D1FFF7D9FF10BD0A28FCD00B28FAD105480078107010BDFFF76CFFC8
:406B800010BD1146184600F02DF910BDD2010020F8B5204DAC6A0127A0071F4E002816DA307806280ED1286A384328621B480069F903084381B219481030FBF7A5F8042013
:406BC00000F0CEF8134802212830FBF79BF8E00711D0062000F0C4F80F49FF20C91E48707078002802D1686B38436863094801212830FBF787F8E0050BD53078042802D130
:406C0000052000F0ADF80348FF2101312830FBF779F8F8BD40F02E40CF01002000002E4010B503212348FBF76FF80120FBF7DCF820483038406A204C80076178800F89009F
:406C400001431C480C38FBF75FF86078002808D0401E022181401820FBF7A2FAC000083800E0B82081B21548FBF74EF81348032109021438FBF748F810481149B830FBF7EB
:406C800043F8612189010F48FBF73EF80D480321001FFBF739F80C490C48FBF735F80B480B496038FBF730F8084801218838FBF72BF810BD70F02E40D2010020D8102E4007
:406CC00090890000041E2E40FF0F000058122E40209000000849087806280BD148780749002803D1486B400840004863C86A01221043C86270470000CF01002040F02E4071
:406D00000148007870470000CF01002000B50300FFF7C4FA080D050D0B070507090D012000BD032000BD042000BD022000BDFF2000BD0000074A9168D26889B2064B92B276
:406D4000994204D105498A4201D1012100E000210170704780002E4033D000003FE3000010B50446FBF748F8072C01D9FF2C01D102480470FBF73CF810BD0000CF0100202D
:406D80000149487070470000CC01002010B5064A012805D01921C9021046FAF7B5FF10BD1D21C902F8E7000090002E4010B50A4A141D012808D009491046FAF7A5FF08498E
:406DC0002046FAF7A1FF10BD04491046891CFAF79BFF0349491DF3E788002E4031D000003AE300000078074AFF2803D04C2804D9553803E01078087070474F3808701070A2
:406E000070470000CE010020F0B50122002830D000292ED00224420600D003246D2342065B06D21800D0641C034600221EE00C2516466E43104D00277519AF720E4F002A5C
:406E4000BB51696007D0661EB24209D106466D367606760E05E05E06760E8027BE1B00E080269B198919521C2E81D2B2A242DED300221046F0BD000090060020074900207B
:406E80000C2242435218927A012A05D0401CC0B20428F5D3002070470120704790060020F8B5044616460F000BD0184D6868A04203D9FF306E30A04203D3FF206E30864248
:406EC00001D90120F8BD2046FBF7A2F900281BD0324639462046FBF7AAF9F0B200210C224A43521913895668F718A74208D90127A41B1B1B9772834206DAC01A1469C0B23A
:406F0000491CC9B20429EAD30020F8BD9006002010B500F05BF80648FF22C1686E320C460448FBF784F903492046FFF76DFF10BDD801002020050020002070470020054A4A
:406F4000002902D0012902D002E0506000E0906000207047D801002070B5084C154608460549A26889182A46FBF761F9A0684019A06028B270BD000020050020D80100206B
:406F80003EB50A226946FFF7E7FF044606480A2200686946FBF73CF9002802D00020C0433EBD20463EBD0000D8010020002803D0FF226E32914201D2FF20704702490A61C5
:406FC000C860002070470000D8010020024800214160816070470000D801002070B5074C15460548626880182A46FFF759FF60684019606028B270BD20050020D801002096
:4070000010B503490A220968FFF7E8FF10BD0000D801002010B50F4A002313600E4A13600E4B18600E4801600E49012008600E490860000290600E490C4808600D491430BA
:407040000860FF381538506000F0BCF800F0CAF9002010BD04020020EC010020180200201C02002008020020F8010020C0070020FC01002010020020014610B500200029B7
:4070800010D0094B1A689C685118A14209D25868196080188A0704D08A07920F891A091D196010BD002010BDEC010020F8B50024164E671E321F3D463168136806E01422C0
:4070C000624310328A58521C1BD0641C9C42F6D36A1C14D02C461422544322460C3288500C214843FFF7C8FF3168002808510AD031680020103408517068401C70602846EF
:40710000F8BD2546E4E73846F8BD0000FC010020F3B50026F64381B000281BDB1E490968884217D80299002914D01B4F142204463F1D54432546396810354859401C09D081
:40714000FAF75AFE38682F1F4159C359994203DBFAF74EFE3046FEBD214608310091465801590C20704308180C220299FBF75FF80948761C001D0068C159B14200D1002655
:407180000549009A091D865008684159491C4151FAF72EFE0020FEBDF8010020002803DB07490968884202D90020C043704704491422091D0968504310300858704700008F
:4071C000F8010020F0B500200D4A451E0346171F50600FE014260146714314680E1DA3510C461668083433511668083435511468401C635039688842ECD30020F0BD0000B7
:40720000FC010020F3B50026F64381B0002841DB2349096888423DD8029900293AD0204F142204463F1D54432546396810354859401C2FD0FAF7E0FD3868415900292BD0D0
